:020000040800F2
:100000000080022055B700080D1800080F180008DE
:100010001118000813180008151800080000000047
:100020000000000000000000000000001718000899
:1000300019180008000000001B1800081D1800080F
:10004000A5B70008A5B70008A5B70008A5B7000820
:10005000A5B70008A5B70008A5B70008A5B7000810
:10006000A5B70008A5B70008A5B70008A5B7000800
:10007000A5B70008A5B70008A5B70008A5B70008F0
:10008000A5B70008A5B70008A5B70008A5B70008E0
:10009000A5B70008A5B70008A5B70008A5B70008D0
:1000A000A5B70008A5B70008A5B70008A5B70008C0
:1000B000A5B70008A5B7000800000000A5B7000814
:1000C000A5B70008A5B70008A5B70008A5B70008A0
:1000D000A5B70008A5B70008A5B70008A5B7000890
:1000E000A5B70008A5B70008000000000000000048
:1000F0000000000000000000000000000000000000
:1001000000000000A5B7000800000000A5B7000827
:10011000A5B7000800000000A5B700080000000017
:10012000A5B70008A5B70008A5B70008A5B700083F
:10013000A5B70008A5B70008A5B700080000000093
:10014000A5B70008A5B70008A5B70008251800083E
:10015000A5B70008A5B70008A5B70008A5B700080F
:10016000A5B70008A5B70008A5B700080000000063
:1001700000000000A5B7000800000000000000001B
:10018000A5B70008A5B70008A5B70008A5B70008DF
:08019000A5B700080000000003
:1001A00010B5054C237833B9044B13B10448AFF3B1
:1001B00000800123237010BD6803002000000000B0
:1001C0003CF0000808B5034B1BB103490348AFF3EB
:1001D000008008BD000000006C0300203CF0000817
:1001E00001F0FF01102A2BDB10F0070F08D010F8E8
:1001F000013B013A8B422DD010F0070F42B3F6D1EC
:10020000F0B441EA012141EA014122F007047FF004
:1002100000070023F0E80256083C85EA010586EA5B
:10022000010685FA47F5A3FA87F586FA47F6A5FA97
:1002300087F68EB9EED1F0BC01F0FF0102F00702A3
:1002400032B110F8013B013A83EA010313B1F8D14E
:100250000020704701387047002D06BF354603382F
:10026000073815F0010F07D1013015F4807F02BF68
:10027000013015F4C03F0130F0BC0138704700BFB9
:1002800010F8012B11F8013B012A28BF9A42F7D040
:10029000D01A7047034613F8012B002AFBD1181A15
:1002A0000138704781F0004102E000BF83F0004355
:1002B00030B54FEA41044FEA430594EA050F08BF01
:1002C00090EA020F1FBF54EA000C55EA020C7FEAC5
:1002D000645C7FEA655C00F0E2804FEA5454D4EB42
:1002E0005555B8BF6D420CDD2C4480EA020281EA0C
:1002F000030382EA000083EA010180EA020281EA44
:100300000303362D88BF30BD11F0004F4FEA013195
:100310004FF4801C4CEA113102D0404261EB4101A4
:1003200013F0004F4FEA03334CEA133302D052422A
:1003300063EB430394EA050F00F0A780A4F10104E6
:10034000D5F1200E0DDB02FA0EFC22FA05F2801820
:1003500041F1000103FA0EF2801843FA05F3594106
:100360000EE0A5F120050EF1200E012A03FA0EFC85
:1003700028BF4CF0020C43FA05F3C01851EBE371AF
:1003800001F0004507D54FF0000EDCF1000C7EEBCC
:1003900000006EEB0101B1F5801F1BD3B1F5001F0A
:1003A0000CD349085FEA30004FEA3C0C04F1010429
:1003B0004FEA445212F5800F80F09A80BCF1004F52
:1003C00008BF5FEA500C50F1000041EB045141EAD4
:1003D000050130BD5FEA4C0C404141EB0101013C9D
:1003E00028BFB1F5801FE9D291F0000F04BF01468C
:1003F0000020B1FA81F308BF2033A3F10B03B3F15E
:1004000020020CDA0C3208DD02F1140CC2F10C02ED
:1004100001FA0CF021FA02F10CE002F11402D8BF4B
:10042000C2F1200C01FA02F120FA0CFCDCBF41EA17
:100430000C019040E41AA2BF01EB0451294330BDE6
:100440006FEA04041F3C1CDA0C340EDC04F11404C3
:10045000C4F1200220FA04F001FA02F340EA03009A
:1004600021FA04F345EA030130BDC4F10C04C4F1E0
:10047000200220FA02F001FA04F340EA03002946C0
:1004800030BD21FA04F0294630BD94F0000F83F40A
:10049000801306BF81F480110134013D4EE77FEAED
:1004A000645C18BF7FEA655C29D094EA050F08BF39
:1004B00090EA020F05D054EA000C04BF194610461A
:1004C00030BD91EA030F1EBF0021002030BD5FEA5E
:1004D000545C05D14000494128BF41F0004130BD86
:1004E00014F580043CBF01F5801130BD01F00045DA
:1004F00045F0FE4141F470014FF0000030BD7FEA4D
:10050000645C1ABF194610467FEA655C1CBF0B4647
:10051000024650EA013406BF52EA033591EA030F5E
:1005200041F4002130BD00BF90F0000F04BF002156
:10053000704730B54FF4806404F132044FF0000589
:100540004FF0000150E700BF90F0000F04BF002102
:10055000704730B54FF4806404F1320410F0004568
:1005600048BF40424FF000013EE700BF42004FEA63
:10057000E2014FEA31014FEA02701FBF12F07F43E0
:1005800093F07F4F81F06051704732F07F4208BF97
:10059000704793F07F4F04BF41F40021704730B59E
:1005A0004FF4607401F0004521F000411CE700BFEA
:1005B00050EA010208BF704730B54FF000050AE06D
:1005C00050EA010208BF704730B511F0004502D56E
:1005D000404261EB41014FF4806404F132045FEA70
:1005E000915C3FF4D8AE4FF003025FEADC0C18BF19
:1005F00003325FEADC0C18BF033202EBDC02C2F10B
:10060000200300FA03FC20FA02F001FA03FE40EA9C
:100610000E0021FA02F11444BDE600BF70B54FF0A0
:10062000FF0C4CF4E06C1CEA11541DBF1CEA13557E
:1006300094EA0C0F95EA0C0F00F0DEF82C4481EAE6
:10064000030621EA4C5123EA4C5350EA013518BF06
:1006500052EA033541F4801143F4801338D0A0FBF3
:1006600002CE4FF00005E1FB02E506F00042E0FBA0
:1006700003E54FF00006E1FB03569CF0000F18BFA6
:100680004EF0010EA4F1FF04B6F5007F64F540744E
:1006900004D25FEA4E0E6D4146EB060642EAC621E1
:1006A00041EA55514FEAC52040EA5E504FEACE2E4E
:1006B000B4F1FD0C88BFBCF5E06F1ED8BEF1004F51
:1006C00008BF5FEA500E50F1000041EB045170BDCD
:1006D00006F0004646EA010140EA020081EA030111
:1006E000B4EB5C04C2BFD4EB0C0541EA045170BD0D
:1006F00041F480114FF0000E013C00F3AB8014F187
:10070000360FDEBF002001F0004170BDC4F10004CF
:10071000203C35DA0C341BDC04F11404C4F1200550
:1007200000FA05F320FA04F001FA05F240EA0200AB
:1007300001F0004221F0004110EBD37021FA04F6E1
:1007400042EB06015EEA430E08BF20EAD37070BD9B
:10075000C4F10C04C4F1200500FA04F320FA05F0FA
:1007600001FA04F240EA020001F0004110EBD370FC
:1007700041F100015EEA430E08BF20EAD37070BD6C
:10078000C4F1200500FA05F24EEA020E20FA04F345
:1007900001FA05F243EA020321FA04F001F00041F4
:1007A00021FA04F220EA020000EBD3705EEA430E65
:1007B00008BF20EAD37070BD94F0000F0FD101F094
:1007C0000046400041EB010111F4801F08BF013CCD
:1007D000F7D041EA060195F0000F18BF704703F00B
:1007E0000046520043EB030313F4801F08BF013D92
:1007F000F7D043EA0603704794EA0C0F0CEA13554E
:1008000018BF95EA0C0F0CD050EA410618BF52EA07
:100810004306D1D181EA030101F000414FF000000D
:1008200070BD50EA410606BF1046194652EA43061B
:1008300019D094EA0C0F02D150EA013613D195EA8F
:100840000C0F05D152EA03361CBF104619460AD1D7
:1008500081EA030101F0004141F0FE4141F47001E1
:100860004FF0000070BD41F0FE4141F4780170BDD1
:1008700070B54FF0FF0C4CF4E06C1CEA11541DBF36
:100880001CEA135594EA0C0F95EA0C0F00F0A7F838
:10089000A4EB050481EA030E52EA03354FEA013165
:1008A00000F088804FEA03334FF0805545EA131378
:1008B00043EA12634FEA022245EA111545EA106540
:1008C0004FEA00260EF000419D4208BF964244F1D7
:1008D000FD0404F5407402D25B084FEA3202B61AF6
:1008E00065EB03055B084FEA32024FF480104FF4CA
:1008F000002CB6EB020E75EB030E22BFB61A75463E
:1009000040EA0C005B084FEA3202B6EB020E75EBD0
:10091000030E22BFB61A754640EA5C005B084FEA38
:100920003202B6EB020E75EB030E22BFB61A754605
:1009300040EA9C005B084FEA3202B6EB020E75EB10
:10094000030E22BFB61A754640EADC0055EA060ED1
:1009500018D04FEA051545EA16754FEA06164FEA14
:10096000C30343EA52734FEAC2025FEA1C1CC0D1C0
:1009700011F4801F0BD141EA00014FF000004FF04D
:10098000004CB6E711F4801F04BF01430020B4F10E
:10099000FD0C88BFBCF5E06F3FF6AFAEB5EB030CC6
:1009A00004BFB6EB020C5FEA500C50F1000041EBC3
:1009B000045170BD0EF0004E4EEA113114EB5C0490
:1009C000C2BFD4EB0C0541EA045170BD41F4801163
:1009D0004FF0000E013C90E645EA060E8DE60CEA6B
:1009E000135594EA0C0F08BF95EA0C0F3FF43BAF88
:1009F00094EA0C0F0AD150EA01347FF434AF95EA3F
:100A00000C0F7FF425AF104619462CE795EA0C0F22
:100A100006D152EA03353FF4FDAE1046194622E7EF
:100A200050EA410618BF52EA43067FF4C5AE50EAC9
:100A300041047FF40DAF52EA43057FF4EBAE12E7B9
:100A40004FF0FF3C06E000BF4FF0010C02E000BF9A
:100A50004FF0010C4DF804CD4FEA410C7FEA6C5C7D
:100A60004FEA430C18BF7FEA6C5C1BD001B050EA20
:100A7000410C0CBF52EA430C91EA030F02BF90EA0B
:100A8000020F0020704710F1000F91EA030F58BFCA
:100A9000994208BF90422CBFD8176FEAE37040F02C
:100AA000010070474FEA410C7FEA6C5C02D150EACA
:100AB000013C07D14FEA430C7FEA6C5CD6D152EA85
:100AC000033CD3D05DF8040B704700BF844610464A
:100AD00062468C461946634600E000BF01B5FFF749
:100AE000B7FF002848BF10F1000F01BD4DF808ED19
:100AF000FFF7F4FF0CBF012000205DF808FB00BFEA
:100B00004DF808EDFFF7EAFF34BF012000205DF843
:100B100008FB00BF4DF808EDFFF7E0FF94BF012090
:100B200000205DF808FB00BF4DF808EDFFF7CEFF91
:100B300094BF012000205DF808FB00BF4DF808EDD0
:100B4000FFF7C4FF34BF012000205DF808FB00BFA1
:100B50004FEA410C7FEA6C5C02D150EA013C0AD1B9
:100B60004FEA430C7FEA6C5C02D152EA033C02D1AB
:100B70004FF0000070474FF0010070474FEA41020C
:100B800012F5001215D211D56FF47873B3EB6252DF
:100B900012D94FEAC12343F0004343EA505311F006
:100BA000004F23FA02F018BF404270474FF0000098
:100BB000704750EA013005D111F0004008BF6FF0D6
:100BC000004070474FF00000704700BF53B94AB96A
:100BD000002908BF00281CBF4FF0FF314FF0FF3045
:100BE00000F06EB9ADF1080C6DE904CE00F006F826
:100BF000DDF804E0DDE9022304B070472DE9F04799
:100C0000089D04468C46002B40F083808A4217469C
:100C100047D9B2FA82F242B1C2F1200024FA00F0C0
:100C20009140974040EA010C94404FEA1748230C4A
:100C3000BCFBF8F61FFA87FE08FB16C143EA014326
:100C400006FB0EF1994209D9FB1806F1FF3080F03E
:100C50001981994240F21681023E3B445B1AA4B2CC
:100C6000B3FBF8F008FB103344EA034400FB0EFE2C
:100C7000A64509D93C1900F1FF3380F00581A6454E
:100C800040F2028102383C4440EA0640A4EB0E04E4
:100C900000261DB1D4400023C5E900433146BDE81C
:100CA000F08702B9FFDEB2FA82F2002A50D1CB1BE4
:100CB0004FEA174E1FFA87F80126B3FBFEFC210C02
:100CC0000EFB1C3341EA034108FB0CF38B4207D9AE
:100CD00079180CF1FF3002D28B4200F2E980844691
:100CE000C91AA3B2B1FBFEF00EFB101143EA014496
:100CF00008FB00F8A04507D93C1900F1FF3302D2E8
:100D0000A04500F2D9801846A4EB080440EA0C4044
:100D1000BFE78B4209D9002D00F0B1800026C5E95C
:100D2000000130463146BDE8F087B3FA83F6002E65
:100D30004AD18B4202D3824200F2B880841A61EB1E
:100D4000030101208C46002DA8D0C5E9004CA5E781
:100D5000C2F1200320FA03F6974001FA02F04FEAAD
:100D6000174ED9403043030CB1FBFEF61FFA87F84B
:100D70000EFB161143EA014306FB08F1994204FAFF
:100D800002F409D9FB1806F1FF3C80F08D809942EE
:100D900040F28A80023E3B445B1A81B2B3FBFEF014
:100DA0000EFB103341EA034100FB08F38B4207D9E5
:100DB000791800F1FF3C73D28B4271D90238394463
:100DC000CB1A40EA064678E7C6F1200C03FA06F48F
:100DD00022FA0CF31C4320FA0CF701FA06F34FEA4F
:100DE000144E21FA0CF11F433B0CB1FBFEF91FFA24
:100DF00084F80EFB191143EA014109FB08FA8A4500
:100E000002FA06F200FA06F308D9611809F1FF3078
:100E100048D28A4546D9A9F102092144A1EB0A0129
:100E2000BFB2B1FBFEF00EFB101147EA014700FB19
:100E300008F8B84507D9E71900F1FF312ED2B845B7
:100E40002CD90238274440EA0940A7EB0807A0FB49
:100E500002894F45C64649461AD317D05DB1B3EB58
:100E60000E0267EB010707FA0CFCF2404CEA0202A3
:100E7000F740C5E9002700263146BDE8F0872E4639
:100E800028460BE70646E9E61846FDE64345E5D267
:100E9000B8EB020E69EB04010138DFE70846D2E740
:100EA00060468DE78146B9E7664675E730464AE712
:100EB000ACF1020C394413E702383C4424E700BF8C
:100EC000704700BFF0B589B00024039404940594E2
:100ED00006940794324BDA6C42F00402DA64DA6C5E
:100EE00002F004020092009ADA6C42F00102DA6425
:100EF000DA6C02F001020192019ADA6C42F002020D
:100F0000DA64DB6C03F002030293029B254F224656
:100F10004FF40051384603F025FD224648F2C01137
:100F20004FF0904003F01EFD1F4D22464FF48051BC
:100F3000284603F017FD4FF400530393012604964F
:100F40000594069403A9384603F040FC48F2C01308
:100F5000039304960594069403A94FF0904003F080
:100F600035FC1F230393114B0493059403A92846D2
:100F700003F02CFC4FF480530393049605940694DD
:100F800003A9284603F022FC4FF4A07303930494B2
:100F9000059403A9284603F019FC09B0F0BD00BF71
:100FA0000010024000080048000400480000111032
:100FB00072B6FEE700B587B0002300930193029359
:100FC0000393049305931848184A026043608360B2
:100FD000C360036104224261037643760122C26149
:100FE00080F820308362C36280F83030436380F839
:100FF000383003F07FFD90B90D4B00930623019329
:10100000002302937F2203920422049205936946EF
:10101000054803F05DFE20B907B05DF804FBFFF75B
:10102000C7FFFFF7C5FF00BF840300200000045086
:101030000004002A08B51148114B0360114B4360AE
:10104000002383600122C260036143618361C36145
:10105000036202F0C7FB50B90021084802F020FCEF
:1010600038B90021054802F049FC20B908BDFFF756
:101070009FFFFFF79DFFFFF79BFF00BFEC030020E2
:1010800000540040EC9C901008B50B480B4B0360DB
:101090000B4B43604FF0805383600023C3600361B8
:1010A0000C22426183610362436204F0CDFA00B90D
:1010B00008BDFFF77DFF00BF38040020008000401E
:1010C0002433030008B50B480B4B03604FF4E133A6
:1010D000436000238360C36003610C22426183612B
:1010E000C3610362436204F0AFFA00B908BDFFF7C1
:1010F0005FFF00BF680500200048004008B50F48AA
:101100000F4B03604FF482734360002383604FF4FE
:101110004072C260036143614FF400728261C36137
:101120000362436283620722C2620363082343634C
:1011300004F0BBFA00B908BDFFF73AFFB80400207D
:101140000038004000B589B000230493059306934E
:10115000079301930293039313484FF08042026078
:10116000436083604FF0FF32C2600361836104F02B
:1011700079FB90B94FF48053049304A90A4804F012
:10118000ADFB60B900230193039301A9064804F065
:1011900013FC30B909B05DF804FBFFF709FFFFF756
:1011A00007FFFFF705FF00BF1C05002000B5B1B029
:1011B0002422002120A80BF075F800211A911B9120
:1011C0001C911D911E91682268460BF06BF810234C
:1011D0001F930122259260232793022329932A92A9
:1011E0002B9228222C9207222D922E932F931FA808
:1011F00002F052FC002832D10F231A9303231B93D1
:1012000000231C931D931E9304211AA802F084FF4F
:1012100038BB46F26403009300230A930C930D93AA
:101220004FF0805317934FF0806314930123019381
:101230000293182303930723049302230593069331
:101240004FF088730793684603F0F4F858B94FF4E9
:10125000007003F095FB40B931B05DF804FBFFF777
:10126000A7FEFFF7A5FEFFF7A3FEFFF7A1FE08B557
:1012700002F082FAFFF79AFFFFF724FEFFF79AFECB
:10128000FFF7D8FEFFF700FFFFF71CFFFFF736FF61
:1012900000F01EF8FFF756FF012002F08FFA09F068
:1012A00005FF044609F002FF0368D969204607F0EC
:1012B000D9FA09F0FBFE07F093FB09F0F7FE44684A
:1012C00009F0F4FE8168204605F096FAFEE700007A
:1012D00008B500220F49104804F0CEFB70B90F4941
:1012E0000D4804F0E0FB60B90D490B4805F01BFA0E
:1012F00050B9094804F0EEFB48B908BDFFF758FEA5
:10130000EDE7FFF755FEEFE7FFF752FEF1E7FFF7D6
:101310004FFEF2E7040000201806002084000020A1
:101320006400002008B5FFF741FF08BD30B589B063
:101330000023039304930593069307930268184BC5
:101340009A4201D009B030BD164CE36C43F0010362
:10135000E364E36C03F001030193019B4FF4C0537A
:1013600003930223049300250595032306930A2380
:10137000079303A94FF0904003F028FAA36D43F0C0
:101380008063A365A36D03F080630293029B2A46EA
:101390002946432003F056FB432003F087FBD1E7A7
:1013A000006800400010024008B500F52C71D0F82C
:1013B000F00204F0A4FB08BD08B501EB810300EBCB
:1013C000C303D3F87C21D0F8F00204F0C4FB08BDBD
:1013D00008B501EB810300EBC303DA6BD0F8F00230
:1013E00004F0F2FB08BD08B5D0F8F00204F088FC68
:1013F00008BD10B504468368022B09D10121D4F839
:10140000F00204F066FCD4F8F00204F039FC10BDE0
:10141000FFF7CEFDF2E7000010B50446D0F8F00269
:1014200004F05AFCA36923B1024A136943F006038E
:10143000136110BD00ED00E010B50446836923B9C7
:10144000D4F8F00204F051FC10BD044A136923F0F3
:1014500006031361FFF766FFF2E700BF00ED00E04F
:1014600010B5044603F0D4FA1E48C0F8F042C4F8A0
:10147000C4021D4B036008234360022383600361A1
:10148000002343618361C361036200F087FB30BBCB
:10149000182300221146D4F8C40201F0C8F95823D9
:1014A00000228021D4F8C40201F0C1F9C023002237
:1014B0008121D4F8C40201F0BAF94FF488730022F4
:1014C0000121D4F8C40201F0B2F94FF48073002274
:1014D0008221D4F8C40201F0AAF9002010BDFFF760
:1014E00067FDD5E7E80800200068004008B5D0F89F
:1014F000C40200F0E1FB032805D8DFE800F0030494
:101500000203012008BD0320FCE710B514461A466B
:101510002346D0F8C40201F057F8032805D8DFE8C5
:1015200000F003040203012010BD0320FCE708B50E
:10153000D0F8C40201F084F8032805D8DFE800F0F1
:1015400003040203012008BD0320FCE708B5D0F81E
:10155000C40201F0F5F8032805D8DFE800F0030421
:101560000203012008BD0320FCE708B5D0F8C4023F
:1015700001F022F9032805D8DFE800F00304020394
:10158000012008BD0320FCE7D0F8C43211F0800F21
:1015900008D101F07F0101EB810103EBC10191F85A
:1015A0006A01704701F07F01013101EB810103EB1A
:1015B000C1018878704708B5D0F8C40200F002FF76
:1015C000032805D8DFE800F003040203012008BD6A
:1015D0000320FCE708B5D0F8C40201F08EF8032818
:1015E00005D8DFE800F003040203012008BD032052
:1015F000FCE708B5D0F8C40201F054F8032805D878
:10160000DFE800F003040203012008BD0320FCE72B
:1016100008B5D0F8C40201F067F808BD10B504465B
:1016200011B101290FD010BD836923B9D4F8F0029C
:1016300004F05BFBF7E7FFF775FE094A136923F037
:1016400006031361F2E7D0F8F00204F045FBA3694A
:10165000002BE8D0024A136943F006031361E2E766
:1016600000ED00E012230B8000487047300000209E
:1016700004230B8000487047440000200C230B809B
:1016800000487047240000200023934217D230B452
:101690000BE0373401F8134000015C0001340025F1
:1016A0000D550133DBB2934207D2040FB0F1204F46
:1016B000EFD2303401F81340EEE730BC704770478A
:1016C00038B50A4B186804331C6804331B68C0180B
:1016D00000D138BD064D0822A91CFFF7D5FF042212
:1016E00005F112012046FFF7CFFFF2E79075FF1FCB
:1016F0004800002008B51A230B80FFF7E1FF0148DE
:1017000008BD00BF4800002008B50A4628B90549B1
:10171000054804F040FE034808BD0249024804F0B1
:101720003AFEF8E7DC0B002058F0000810B50A4636
:10173000034C2146034804F02EFE204610BD00BF96
:10174000DC0B002070F0000808B50A4628B90549EE
:10175000054804F020FE034808BD0249024804F091
:101760001AFEF8E7DC0B002084F0000808B50A46F2
:1017700028B90549054804F00EFE034808BD024992
:10178000024804F008FEF8E7DC0B002090F00008A7
:1017900000207047002070470020704710B50146B8
:1017A000044C204604F0CEFF204604F0EBFF00205E
:1017B00010BD00BF1806002010B5064C00220649D7
:1017C000204604F0B7FF0549204604F0BBFF002087
:1017D00010BD00BF18060020DC150020DC0D002025
:1017E000094BD3F8BC32D3F814320BB10120704747
:1017F00010B5054C0A460146204604F09BFF2046E2
:1018000004F0A6FF10BD00BF18060020FEE7FEE7AB
:10181000FEE7FEE7FEE770477047704708B501F046
:10182000BBFF08BD08B5024800F0E0FD08BD00BFE1
:10183000E808002082B00A4B1A6E42F001021A66D4
:101840001A6E02F001020092009A9A6D42F08052E4
:101850009A659B6D03F080530193019B02B0704722
:101860000010024000B589B0002303930493059350
:10187000069307930268144B9A4202D009B05DF8B0
:1018800004FB03F17043A3F5F833DA6C42F4005221
:10189000DA64DA6C02F400520192019ADA6C42F0D6
:1018A0000102DA64DB6C03F001030293029B302334
:1018B00003930B2304930023059303A94FF0904057
:1018C00002F084FFDAE700BF0000045010B588B0D2
:1018D0000023039304930593069307930268144B24
:1018E0009A4201D008B010BD124CE36C43F00103E2
:1018F000E364E36C03F001030193019B4FF4C063C5
:1019000003931223049301230593032306930423D3
:10191000079303A94FF0904002F058FFA36D43F4E2
:101920000013A365A36D03F400130293029BD9E790
:10193000005400400010024000B58BB00023059316
:1019400006930793089309930368274A934205D0A7
:10195000264A934225D00BB05DF804FB244BDA6D88
:1019600042F00102DA65DA6D02F001020192019A99
:10197000DA6C42F00102DA64DB6C03F001030293DB
:10198000029B0C2305930223069300230793032352
:1019900008930823099305A94FF0904002F016FF21
:1019A000D9E7134B9A6D42F480229A659A6D02F43E
:1019B00080220392039ADA6C42F00202DA64DB6C52
:1019C00003F002030493049B4FF440630593022346
:1019D000069300230793032308930723099305A97C
:1019E000044802F0F3FEB6E70080004000480040E3
:1019F000001002400004004800B589B000230393A2
:101A000004930593069307930268154B9A4202D0FC
:101A100009B05DF804FB03F5EC339A6D42F48042A3
:101A20009A659A6D02F480420192019ADA6C42F052
:101A30000202DA64DB6C03F002030293029B4FF4B0
:101A40006043039302230493002305930323069327
:101A50000523079303A9034802F0B8FED8E700BFA7
:101A600000380040000400480368B3F1804F00D004
:101A7000704782B003F504339A6D42F001029A6513
:101A80009B6D03F001030193019B02B0704770B599
:101A900012F4804F41D00468B4F850300D78EE0055
:101AA00016FA83F32344B3F80244C4F309048B69A0
:101AB000A34228D31B1B8B618B697BB9066836F860
:101AC00025309BB223F4804323F0700383F400534A
:101AD00043F4004343F0800326F8253012F0400F12
:101AE0000ED002680D7832F825309BB223F4E04323
:101AF00023F0700343F4004343F0C00322F8253081
:101B000024B9204670BD00238B61D5E723460A899E
:101B10004969006801F0F0FDF3E70468B4F850305B
:101B20000D78EE0016FA83F32344B3F80644C4F3A9
:101B300009048B69A3422ED31B1B8B618B697BB974
:101B4000066836F825309BB223F4804323F07003F7
:101B500083F4005343F4004343F0800326F8253018
:101B600012F0400F0ED102680D7832F825309BB28A
:101B700023F4E04323F0700343F4004343F0C00335
:101B800022F82530002CBCD023464A8949690068D8
:101B900001F0B2FDB5E700238B61CFE7F0B587B068
:101BA000002800F08780044690F8A932DBB10323B7
:101BB00084F8A932206800F07CFE254655F8107B99
:101BC0006E460FCD0FC62B683360231D0ECB3846F3
:101BD00000F05FFE054658B1022384F8A9320125C2
:101BE000284607B0F0BD80F8A832FFF79FFBDEE77C
:101BF0000021206800F067FE2B4619E05A1C02EB1A
:101C0000820104EBC1010120487002EB820104F85B
:101C1000313003EB830104EBC101CB8602EB82067A
:101C200004EBC6060020F0708863C8630864D3B272
:101C300061688B42E2D316E005EB850304EBC30336
:101C4000002283F8692183F8685183F86B21C3F877
:101C50007821C3F87C2105EB850304EBC303C3F8AB
:101C600080210135EDB2A942E6D8254655F8107B12
:101C70006E460FCD0FC62B683360231D0ECB384642
:101C800000F023FE054660B9002384F824300123C8
:101C900084F8A932E369012B08D0206801F03BF9F0
:101CA0009EE7022384F8A932012599E7204600F037
:101CB000DAFDF2E7012593E790F8A832012B0ED068
:101CC00010B50446012380F8A832006800F0E8FD52
:101CD000206801F015F9002084F8A80210BD022048
:101CE000704770B505460C46164612F0400F00F0DE
:101CF000B8800268B2F850300978C80010FA83F34F
:101D00001344B3F80224C2F30902A36993422BD906
:101D10009B1AA361A36953B316F4804F0DD02868B2
:101D200030F821309BB223F4E04323F0700343F4F6
:101D3000404343F0800320F8213094F82430012BF5
:101D40002BD02A68217832F821309BB223F4E0436B
:101D500023F0400383F0300343F4004343F0800357
:101D600022F82130002070BD0023A361D2E728466D
:101D7000FFF72EFB16F4804FE3D02A68217832F863
:101D800021309BB223F4E04323F0700343F440433B
:101D900043F0800322F82130D3E763691344636181
:101DA000E3691344E361216A236999421FD3C91A85
:101DB00021626278002A3FD12968B1F8502011FAD7
:101DC00082F2217802EBC102EBB9B2F8021489B2B7
:101DD00021F4F84189B2A2F80214B2F802146FEAB1
:101DE00041416FEA514189B2A2F8021426E021B9BB
:101DF000002384F824301346DBE7002384F82430E2
:101E000023620B46D5E73E2B09D8590813F0010F82
:101E100000D00131890289B2A2F802140EE05909FA
:101E200013F01F0F00D101396FEAC1616FEA514110
:101E300089B2A2F8021401E0012A06D09BB22289DD
:101E40006169286801F075F87BE72968B1F85020CE
:101E500011FA82F2217802EBC10299B2A2F80214BF
:101E6000ECE70268B2F850300978C80010FA83F342
:101E70001344B3F80624C2F30902A369934244D37E
:101E80009B1AA361A369002B42D016F4804F0DD199
:101E9000286830F821309BB223F4E04323F070032C
:101EA00043F4404343F0800320F8213094F8243079
:101EB000012B7FF446AF636913446361E369134404
:101EC000E361216A2369994239D3C91A21622968D9
:101ED0006278002A58D1B1F8502011FA82F22178A4
:101EE00002EBC102BBBBB2F8061489B221F4F8417F
:101EF00089B2A2F80614B2F806146FEA41416FEAFB
:101F0000514189B2A2F8061440E00023A361B9E769
:101F10002846FFF75DFA16F4804F7FF412AF2A6867
:101F2000217832F821309BB223F4E04323F0700390
:101F300043F4404343F0800322F8213001E721B904
:101F4000002384F824301346C1E70023236284F879
:101F500024300B46BBE73E2B09D8590813F0010F7C
:101F600000D00131890289B2A2F806140EE05909A5
:101F700013F01F0F00D101396FEAC1616FEA5141BF
:101F800089B2A2F8061401E0012A06D09BB2628948
:101F90006169286800F0CDFFD3E6B1F8502011FA4E
:101FA00082F1227801EBC2019AB2A1F80624EDE792
:101FB0002DE9F04105462868B0F8443013F4004F8D
:101FC00000F0FD81B0F84440A3B214F00F0440F0DB
:101FD000CE8013F0100F5BD003889AB213F4006F19
:101FE00040F08B8012F4004FE5D0038823F070039B
:101FF0001B051B0D43F0800303802868B0F85030A8
:1020000095F86821D20012FA83F30344B3F806343A
:10201000C3F30903C5F884318BB1D5F87C1171B1D4
:10202000B5F86E2101F068FBD5F88421D5F87C3134
:102030001344C5F87C3100212846FFF7BDF92B6811
:10204000B3F8502013FA82F3D5F87821002A75D11D
:10205000B3F8062492B222F4F84292B2A3F806240E
:10206000B3F806246FEA42426FEA524292B2A3F8F2
:1020700006242A6813889BB223F4804323F070035C
:1020800083F4405343F4004343F08003138092E70A
:1020900003889BB223F4E14323F070036FEA4343C8
:1020A0006FEA53439BB203802968B1F8503095F82A
:1020B0002820D20012FA83F30B44B3F80234C3F39E
:1020C00009036B64EA6B1344EB6300212846FFF7B6
:1020D0007FF995F82430002B3FF46DAF2B6C002B6B
:1020E0007FF469AF95F824302A6843F08003A2F8A2
:1020F0004C30002385F824305DE7B0F8503095F877
:102100006821D20012FA83F30344B3F80634C3F310
:102110000903C5F88431B5F86E2105F52C7101F07D
:10212000EBFA2A68138823F070031B051B0D43F09C
:10213000800313802846FFF737F93CE73E2A09D889
:10214000510812F0010F00D00131890289B2A3F8C1
:1021500006148EE7510912F01F0F00D101396FEA02
:10216000C1626FEA524292B2A3F8062481E730F8C6
:1021700024309EB213F4004F4AD116F0800F3FF482
:102180001AAF621C02EB820105EBC101286830F82E
:1021900024309BB223F4E14323F070036FEA4343FE
:1021A0006FEA53439BB220F82430CB78022B00F027
:1021B000E9802868B0F85030621C02EB820215F802
:1021C0003220D20012FA83F30344B3F80234C3F38B
:1021D000090304EB840205EBC202126C9A4240F23E
:1021E000DA8004EB840605EBC606D21A326404EBEF
:1021F000840205EBC202126C002A40F0D380013445
:1022000004EB840415F834102846FFF7E1F8D2E611
:1022100030F8243023F070031B051B0D43F08003BE
:1022200020F8243004EB8401C90001F5B47105EBFA
:10223000010804EB840305EBC30393F87431002B0E
:1022400040D12868B0F8503004EB840205EBC2029C
:1022500092F86821D20012FA83F30344B3F80674AB
:10226000C7F3090717BB04EB840305EBC303D3F8DB
:1022700084213A44C3F88421D3F87C213A44C3F83A
:102280007C21D3F880313BB104EB840305EBC3031D
:10229000D3F878319F4270D204EB840305EBC3037B
:1022A00093F868112846FFF787F866E704EB840186
:1022B00005EBC1013B46B1F86E21D1F87C1101F06C
:1022C0001BFAD0E704EB840305EBC30393F86B31EF
:1022D000022B33D0296804EB840205EBC20292F88A
:1022E000680131F820309BB223F4E04323F07003FF
:1022F00043F4004343F0C00321F82030286892F8EB
:10230000683130F8232012F4804F1ED0B0F85020EE
:10231000DB0013FA82F30344B3F80274C7F309072E
:10232000002FA0D004EB840105EBC1013B46B1F8BE
:102330007021D1F87C1101F0DFF994E73246414673
:102340002846FFF7A4FB07468DE7B0F85020DB00D6
:1023500013FA82F30344B3F80674C7F30907002F96
:1023600081D004EB840105EBC1013B46B1F8722139
:10237000D1F87C1101F0C0F975E74146286800F0FA
:10238000EBFDFAE616F4807F3FF413AF32462846A1
:10239000FFF7A7FC0FE604EB840205EBC202002660
:1023A000166424E704EB840205EBC202D66B1E44DC
:1023B000D663546C2344536400F0CEFDFBE500204B
:1023C000BDE8F08190F8A832012B0DD010B504467D
:1023D000012380F8A83280F82410006800F08AFDFC
:1023E000002084F8A80210BD0220704710B50446F2
:1023F000006800F098FD10F4004F40F09B802068CA
:1024000000F091FD10F4806F40F09880206800F09B
:102410008AFD10F4804F08D02268B2F844309BB295
:1024200023F480439BB2A2F84430206800F07BFD87
:1024300010F4005F08D02268B2F844309BB223F455
:1024400000539BB2A2F84430206800F06CFD10F4F9
:10245000805F21D02268B2F840309BB223F00403A1
:102460009BB2A2F840302268B2F840309BB223F011
:1024700008039BB2A2F8403094F8E032012B6ED0F2
:102480002046FEF7D9FF2268B2F844309BB223F40D
:1024900080539BB2A2F84430206800F044FD10F451
:1024A000006F63D1206800F03EFD10F0800F2BD04C
:1024B0002268B2F844309BB223F080039BB2A2F8AA
:1024C000443094F8E032002B6DD12268B2F84030ED
:1024D0009BB243F00403A2F840302268B2F84030C7
:1024E0009BB243F00803A2F84030012184F8E012C7
:1024F0002368B3F85430C3F38D0303F03C03C4F8EE
:10250000E4322046FFF78AF8206800F00CFD10F452
:10251000007F4CD1206800F006FD10F4807F08D0C9
:102520002268B2F844309BB223F480739BB2A2F8C5
:10253000443010BD2046FFF73BFD60E72268B2F84B
:1025400044309BB223F480639BB2A2F8443020460F
:10255000FEF74FFF00212046FFF734FF56E700212A
:1025600084F8E0122046FFF759F889E72268B2F8AC
:1025700040309BB243F00803A2F840302268B2F822
:1025800044309BB223F400639BB2A2F8443022682B
:10259000B2F840309BB243F00403A2F8403020462A
:1025A000FEF73AFF7EE72046FEF736FFACE72268EB
:1025B000B2F844309BB223F400739BB2A2F84430CB
:1025C0002046FEF710FFA5E770B505460C4611F052
:1025D000800F26D101F0070000EB8001C90001F552
:1025E000B476A91900EB800005EBC000002680F846
:1025F000696104F007040C700A61CB704A7802B17B
:10260000CC81022B17D095F8A832012B16D00123CC
:1026100085F8A832286800F06CF9002085F8A80237
:1026200070BD01F00700013000EB800105EBC10136
:1026300001264E70DDE700230B71E4E70220EFE78F
:1026400010B504460B4611F0800F1FD101F00702B0
:1026500002EB8201C90001F5B471014402EB820270
:1026600000EBC202002082F8690103F007030B703F
:1026700094F8A832012B13D0012384F8A8322068E3
:1026800000F0D7FA002084F8A80210BD01F007027C
:10269000013202EB820100EBC10101204870E4E746
:1026A0000220F2E738B501F0070404EB8401C90009
:1026B00001F5B471014404EB840500EBC505C5F8D0
:1026C0007C21C5F880310023C5F8843185F8693153
:1026D00085F8684124B9006800F03EFC002038BD50
:1026E000006800F039FCF9E701F0070101EB810116
:1026F00000EBC101D1F88401704770B501F0070506
:102700006C1C04EB840100EBC10105EB850600EBBA
:10271000C606F2633364012286F84C20B3640023BA
:1027200073644A7004EB840400F8345025B90068DF
:1027300000F012FC002070BD006800F00DFCF9E70D
:1027400038B501F007054268954231D804460B467A
:1027500011F0800F1ED101EB8101C90001F5B471A8
:10276000014403EB830300EBC303002283F86921D8
:1027700001238B700D7094F8A832012B1AD001231D
:1027800084F8A832206800F03FFB5DB1002084F897
:10279000A80238BD6B1C03EB830100EBC1010122D1
:1027A0004A70E5E704F52C71206800F0C0FBEDE706
:1027B0000120EEE70220ECE70B4601F00F01426832
:1027C000914230D810B5044613F0800F21D103F0A8
:1027D000070202EB8201C90001F5B471014402EB6A
:1027E000820200EBC202002082F8690100228A7096
:1027F00003F007030B7094F8A832012B15D00123C6
:1028000084F8A832206800F024FB002084F8A80295
:1028100010BD03F00702013202EB820100EBC1019F
:1028200001204870E2E7012070470220F0E711F034
:10283000800F0BD001F00701013101EB810100EBAA
:10284000C10152B90A73CB800020704701EB8101AE
:10285000C90001F5B4710144F3E701220A730B8149
:102860001B0C4B81F0E7034602680121C0F8E81217
:10287000002083F8E002B2F854309BB20B43A2F878
:102880005430B2F854309BB243F00203A2F85430F3
:10289000704784B001A880E80E00002004B07047A3
:1028A00003460020A3F844004BF68072A3F84020B2
:1028B0007047B0F8403023F47E535B045B0CA0F803
:1028C0004030002070470020704784B010B40446A8
:1028D00002A880E80E000123A4F840300020A4F8EC
:1028E0004000A4F84400A4F850005DF8044B04B084
:1028F000704730B403460A7830F82240A4B224F47A
:10290000EC4424F07004A4B2C87803285BD8DFE854
:1029100000F04F560252002048F280052C4323F865
:1029200022400C7833F8242012B222F4E04222F044
:102930007002224392B22A4323F824200A7B002A01
:1029400040F0B6804A78002A4ED0B3F8502013FAEF
:1029500082F20C7802EBC402CC8864086400A2F80E
:1029600000440C7833F8242012F0400F0CD033F8D8
:10297000242092B222F4E04222F0700242F400429B
:1029800042F0C00223F82420CA78012A1DD0097819
:1029900033F8212092B222F4E04222F0400282F089
:1029A000200242F4004242F0800223F8212064E039
:1029B00044F40074B0E744F4C0640020ACE744F48D
:1029C00080640020A8E70120A6E7097833F82120D9
:1029D00092B222F4E04222F0400242F4004242F07D
:1029E000800223F8212048E0B3F8502013FA82F245
:1029F0000C7802EBC402CC8864086400A2F804449A
:102A0000B3F8502013FA82F20C7802EBC4020C697E
:102A1000ACBBB2F80644A4B224F4F844A4B2A2F8C1
:102A20000644B2F806446FEA44446FEA5444A4B240
:102A3000A2F806440C7833F8242012F4804F0CD00E
:102A400033F8242092B222F4E04222F0700242F4E1
:102A5000404242F0800223F82420097833F82120F4
:102A600092B222F4804222F0700282F4405242F488
:102A7000004242F0800223F8212030BC70473E2CF7
:102A800009D8650814F0010F00D00135AD02ADB2D0
:102A9000A2F80654CEE7650914F01F0F00D1013DDE
:102AA0006FEAC5646FEA5444A4B2A2F80644C1E7D1
:102AB0000C7833F8242092B222F4E04222F0700223
:102AC00042F4014242F0800223F82420B3F850205F
:102AD00013FA82F20C7802EBC4020C8964086400D9
:102AE000A2F80044B3F8502013FA82F20C7802EBFB
:102AF000C4024C8964086400A2F804444A78002A9D
:102B000040D10C7833F8242012F4804F0CD033F8E5
:102B1000242092B222F4E04222F0700242F44042B9
:102B200042F0800223F824200C7833F8242012F09D
:102B3000400F0CD033F8242092B222F4E04222F06D
:102B4000700242F4004242F0C00223F824200D78C3
:102B500033F8252092B222F4804222F0700282F4EF
:102B6000405248F28004224323F82520097833F8A4
:102B7000212092B222F4E04222F04002224323F8C4
:102B800021207AE70C7833F8242012F4804F0CD0FF
:102B900033F8242092B222F4E04222F0700242F490
:102BA000404242F0800223F824200C7833F824209D
:102BB00012F0400F0CD033F8242092B222F4E042FD
:102BC00022F0700242F4004242F0C00223F82420B6
:102BD000CA78012A1ED00C7833F8242092B222F44D
:102BE000E04222F0400282F0200242F4004242F031
:102BF000800223F82420097833F8212092B222F4AD
:102C0000804222F0700242F4004242F0800223F837
:102C1000212032E70C7833F8242092B222F4E042EB
:102C200022F0400242F4004242F0800223F82420C5
:102C3000E1E70B7B002B46D14B7813B30A7830F8D1
:102C4000223013F0400F0CD030F822309BB223F426
:102C5000E04323F0700343F4004343F0C00320F843
:102C600022300A7830F822309BB223F4E04323F07C
:102C7000400343F4004343F0800320F82230002057
:102C800070470A7830F8223013F4804F0CD030F8B7
:102C900022309BB223F4E04323F0700343F440431B
:102CA00043F0800320F822300A7830F822309BB2BB
:102CB00023F4804323F0700343F4004343F0800384
:102CC00020F82230DBE710B44B78002B4FD10A7884
:102CD00030F8223013F4804F0CD030F822309BB201
:102CE00023F4E04323F0700343F4404343F08003B4
:102CF00020F822300A7830F8223013F0400F0CD040
:102D000030F822309BB223F4E04323F0700343F405
:102D1000004343F0C00320F822300A7830F8223014
:102D20009BB223F4E04323F0700343F4004343F0E9
:102D3000C00320F822300B7830F8232092B222F41E
:102D4000804222F0700248F28004224320F82320BF
:102D50000A7830F822309BB223F4E04323F040039A
:102D6000234320F8223000205DF8044B70470A7896
:102D700030F8223013F4804F0CD030F822309BB260
:102D800023F4E04323F0700343F4404343F0800313
:102D900020F822300A7830F8223013F0400F0CD09F
:102DA00030F822309BB223F4E04323F0700343F465
:102DB000004343F0C00320F822300A7830F8223074
:102DC0009BB223F4E04323F0700343F4404343F009
:102DD000800320F822300B7830F8232092B222F4BE
:102DE000E04222F0400248F28004224320F82320EF
:102DF0000A7830F822309BB223F4804323F070032A
:102E0000234320F82230AEE74B788BB10A7830F8B4
:102E100022309BB223F4E04323F0400383F01003FD
:102E200043F4004343F0800320F822300020704731
:102E30000A7830F822309BB223F4804323F07003E9
:102E400083F4805343F4004343F0800320F822309E
:102E5000ECE70B7B002B4BD14B7833B30A7830F87F
:102E6000223013F0400F0CD030F822309BB223F404
:102E7000E04323F0700343F4004343F0C00320F821
:102E80002230CB78012B33D00A7830F822309BB235
:102E900023F4E04323F0400383F0200343F4004392
:102EA00043F0800320F8223022E00A7830F8223004
:102EB00013F4804F0CD030F822309BB223F4E0435F
:102EC00023F0700343F4404343F0800320F82230A2
:102ED0000A7830F822309BB223F4804323F0700349
:102EE00083F4405343F4004343F0800320F822303E
:102EF0000020704711B98023A0F84C3000207047A3
:102F0000B0F858306FEA43436FEA53439BB2A0F8DE
:102F1000583000207047B0F85830C3F30E03A0F8C3
:102F2000583000207047B0F8440080B2704700204D
:102F3000704710B45C1C6408024402F5806244B11E
:102F40000B78487843EA002322F8023B0231013C27
:102F5000F5E75DF8044B704770B505460C464A78B6
:102F6000012A37D00B7B002B40F0A1828B690A69C4
:102F7000934240F27F829B1A8B61B5F8503015FA6C
:102F800083F3217803EBC103002A40F07782B3F882
:102F9000062492B222F4F84292B2A3F80624B3F8BF
:102FA00006246FEA42426FEA524292B2A3F8062424
:102FB000227835F822309BB223F4804323F070034B
:102FC00083F4405343F4004343F0800325F8223058
:102FD000002070BD8B6909698B4200D90B46207BAC
:102FE00038B3E078022846D0217835F8210010F077
:102FF000400F00F0EF81002A40F0CB81B5F850205F
:1030000015FA82F202EBC101002B40F0A981B1F860
:10301000062492B222F4F84292B2A1F80624B1F842
:1030200006246FEA42426FEA524292B2A1F80624A5
:10303000B8E19EB23346E28861692846FFF779FF1E
:10304000B5F8503015FA83F3227803EBC203A3F8E6
:103050000264227835F822309BB223F4E04323F057
:10306000400383F0300343F4004343F0800325F82A
:1030700022300020ADE7236A994280F05381227804
:1030800035F822309BB223F4E04323F0700343F47D
:10309000014343F0800325F822302669236A9B1BF5
:1030A0002362237835F8232012F0400F00F09D8032
:1030B00062788ABBB5F8502015FA82F202EBC3039E
:1030C0008EB9B3F8062492B222F4F84292B2A3F871
:1030D0000624B3F806246FEA42426FEA524292B2E3
:1030E000A3F806241AE03E2E09D8720816F0010F44
:1030F00000D00132920292B2A3F806240EE07209C7
:1031000016F01F0F00D1013A6FEAC2626FEA524215
:1031100092B2A3F8062401E0012A2BD0B3B262894F
:1031200061692846FFF705FF63691E446661226AEC
:1031300023699A4228D9D21A22626278002A40D1A1
:10314000B5F8502015FA82F2217802EBC102FBB9E2
:10315000B2F8021489B221F4F84189B2A2F802143B
:10316000B2F802146FEA41416FEA514189B2A2F804
:10317000021428E0B5F8502015FA82F202EBC303DE
:10318000B2B2A3F80624C9E7002323621346D4E7AA
:103190003E2B09D8590813F0010F00D001318902E4
:1031A00089B2A2F802140EE0590913F01F0F00D1E2
:1031B00001396FEAC1616FEA514189B2A2F8021484
:1031C00001E0012A06D09BB2228961692846FFF7F7
:1031D000B0FE3EE7B5F8502015FA82F2217802EBF6
:1031E000C10299B2A2F80214EDE762788ABBB5F881
:1031F000502015FA82F202EBC3038EB9B3F8022411
:1032000092B222F4F84292B2A3F80224B3F8022454
:103210006FEA42426FEA524292B2A3F802241AE0E5
:103220003E2E09D8720816F0010F00D0013292022A
:1032300092B2A3F802240EE0720916F01F0F00D11B
:10324000013A6FEAC2626FEA524292B2A3F80224D4
:1032500001E0012A2BD0B3B2228961692846FFF729
:1032600068FE63691E446661226A23699A4228D90E
:10327000D21A22626278002A40D1B5F8502015FA9D
:1032800082F2217802EBC102FBB9B2F8061489B2CE
:1032900021F4F84189B2A2F80614B2F806146FEAD4
:1032A00041416FEA514189B2A2F8061428E0B5F80D
:1032B000502015FA82F202EBC303B2B2A3F8022443
:1032C000C9E7002323621346D4E73E2B09D85908E7
:1032D00013F0010F00D00131890289B2A2F806145F
:1032E0000EE0590913F01F0F00D101396FEAC161D7
:1032F0006FEA514189B2A2F8061401E0012A06D012
:103300009BB2628961692846FFF713FEA1E6B5F812
:10331000502015FA82F2217802EBC10299B2A2F88C
:103320000614EDE7217835F8212092B222F4E2422A
:1033300022F0700242F4004242F0800225F821207F
:10334000B5F8502015FA82F2217802EBC1029BB247
:10335000A2F80234228961692846FFF7EAFD78E67F
:103360003E2B09D85A0813F0010F00D00132920207
:1033700092B2A1F8062415E05A0913F01F0F00D1EC
:10338000013A6FEAC2626FEA524292B2A1F8062491
:1033900008E0B5F8502015FA82F202EBC1019AB2AA
:1033A000A1F8062462899BB261692846FFF7C1FD36
:1033B0006378002B4CD1227835F822309BB223F46D
:1033C000E04323F0700343F4004343F0C00325F8C7
:1033D00022303EE68ABBB5F8502015FA82F202EBA5
:1033E000C1018BB9B1F8022492B222F4F84292B230
:1033F000A1F80224B1F802246FEA42426FEA524275
:1034000092B2A1F8022421E03E2B09D85A0813F009
:10341000010F00D00132920292B2A1F8022415E00D
:103420005A0913F01F0F00D1013A6FEAC2626FEA26
:10343000524292B2A1F8022408E0B5F8502015FAE1
:1034400082F202EBC1019AB2A1F802242289AAE712
:10345000012B7FF4FEAD227835F822309BB223F4A5
:10346000E04323F0700343F4404343F0800325F826
:103470002230EEE500228A611A467EE53E2A09D80E
:10348000510812F0010F00D00131890289B2A3F86E
:1034900006148DE5510912F01F0F00D101396FEAB2
:1034A000C1616FEA514189B2A3F8061480E5CB7877
:1034B000022B45D0012B40F01D8189692369994277
:1034C00040F2D480C91AA161D2B9B5F8502015FADA
:1034D00082F2217802EBC102002B40F0CB80B2F8DF
:1034E000021489B221F4F84189B2A2F80214B2F8A8
:1034F00002146FEA41416FEA514189B2A2F8021405
:103500006278002A40F0E880B5F8502015FA82F27F
:10351000217802EBC102002B40F0C580B2F80634DE
:103520009BB223F4F8439BB2A2F80634B2F80634F7
:103530006FEA43436FEA53439BB2A2F8063437E580
:10354000CAB9B0F8503010FA83F30A7803EBC2031B
:103550000A6972BBB3F8022492B222F4F84292B222
:10356000A3F80224B3F802246FEA42426FEA5242FF
:1035700092B2A3F802246378002B4CD1B5F85030F6
:1035800015FA83F3227803EBC203226952BBB3F826
:10359000062492B222F4F84292B2A3F80624B3F8B9
:1035A00006246FEA42426FEA524292B2A3F806241E
:1035B00033E03E2A09D8510812F0010F00D0013142
:1035C0008A0292B2A3F80224D5E7510912F01F0F24
:1035D00000D101396FEAC1626FEA524292B2A3F898
:1035E0000224C8E73E2A09D8510812F0010F00D082
:1035F00001318A0292B2A3F806240EE0510912F0BA
:103600001F0F00D101396FEAC1626FEA524292B2D4
:10361000A3F8062401E0012B1DD0E369002B3FF441
:10362000C7AC227835F8221044F2400303EA0100C7
:103630008B4302D000287FF4BBAC35F822309BB21C
:1036400023F4E04323F0700343F4004343F0C0034A
:1036500025F82230ACE4B5F8503015FA83F322781F
:1036600003EBC203228AA3F80624D6E70023A36152
:103670000B4629E73E2B09D8590813F0010F00D05B
:103680000131890289B2A2F8021439E7590913F00D
:103690001F0F00D101396FEAC1616FEA514189B250
:1036A000A2F802142CE73E2B09D8590813F0010F99
:1036B00000D001318B029BB2A2F8063478E459099C
:1036C00013F01F0F00D101396FEAC1636FEA534352
:1036D0009BB2A2F806346BE4012A7FF469ACB5F81A
:1036E000502015FA82F2217802EBC1029BB2A2F8B7
:1036F00006345DE401206CE410B45C08104400F56D
:10370000806044B130F8022B0A70C2F307224A707D
:103710000231013CF5E713F0010F01D003880B7073
:103720005DF8044B70470000104B1B780BB901206B
:10373000704710B504464FF47A70B0FBF3F30C4AAF
:103740001068B0FBF3F001F0BFF968B90F2C01D994
:1037500001200AE0002221464FF0FF3001F072F90B
:10376000044B1C60002000E0012010BD7800002008
:10377000800000207C00002010B5032001F050F9EB
:103780000020FFF7D1FF10B10124204610BD0446F0
:10379000FEF750F8F9E70000034B1B78034A116865
:1037A0000B441360704700BF78000020DC1D002030
:1037B000014B1868704700BFDC1D002038B5044677
:1037C000FFF7F6FF0546B4F1FF3F02D0044B1B782C
:1037D0001C44FFF7EDFF401BA042FAD338BD00BFE9
:1037E00078000020002859D010B5044690F84130E8
:1037F000002B43D0242384F841302268136823F03F
:10380000010313606368226823F070631361226808
:10381000936823F400439360E368012B33D0A368DB
:10382000226843F404439360E368022B31D022689A
:10383000536843F0007343F4004353602268D36835
:1038400023F40043D360236962691343A1692268AA
:1038500043EA0123D360E369216A22680B431360C2
:103860002268136843F00103136000206064202382
:1038700084F84130206384F8420010BD80F8403065
:10388000FEF724F8B6E7A368226843F40043936088
:10389000CAE723684FF400625A60C8E70120704706
:1038A00090F84130DBB2202B24D190F84030012B2E
:1038B00022D0012380F84030242380F84130026870
:1038C000136823F0010313600268136823F4805324
:1038D000136002681368194311600268136843F0AB
:1038E00001031360202380F84130002380F840302A
:1038F00018467047022070470220704790F8413008
:10390000DBB2202B22D190F84030012B20D00123B4
:1039100080F84030242380F841300268136823F097
:10392000010313600268136823F4706343EA012102
:1039300011600268136843F001031360202380F8CC
:103940004130002380F8403018467047022070470D
:103950000220704730B583B00446204B9B6D13F0B6
:10396000805F0BD001F004F8B0F5007F17D0802CF9
:103970001FD82DD0702C2DD000211BE0174DAB6D22
:1039800043F08053AB65AB6D03F080530193019B13
:1039900000F0EEFFAB6D23F08053AB65E4E7802CC5
:1039A00003D9A02C03D9022104E0002102E0012167
:1039B00000E003210A4A136823F007030B43136056
:1039C000136803F007038B4206D1002003B030BD1B
:1039D0000221EFE70121EDE70120F7E700100240A7
:1039E00000200240284A9368D26802F0030213F0D4
:1039F0000C030AD00C2B06D0042B1FD0082B20D090
:103A00000020024610E0012AF6D11F4A126812F087
:103A1000080F0CD11C4AD2F89420C2F303221B4990
:103A200051F8222043B100200C2B0DD07047164ACC
:103A30001268C2F30312F2E71046F5E714480022B9
:103A4000F2E714480022EFE70F4BDB6803F00303B3
:103A5000022B16D0032B00D10E4A0B4BD868C0F3B3
:103A600002100130D968C1F3062102FB01F2B2FB5A
:103A7000F0F2D868C0F3416001304000B2FBF0F0D2
:103A8000D4E7034AE9E700BF00100240B8F000089D
:103A90000024F40000127A00002800F02783F0B51B
:103AA00083B00446AE4B9D6805F00C05DE6806F059
:103AB0000306036813F0100F5AD0E5B10C2D18D08F
:103AC000A369002B00F0BB80A54A136843F00103F3
:103AD0001360FFF76DFE0746A14B1B6813F0020F42
:103AE00040F09A80FFF764FEC01B0228F4D903203F
:103AF00007E3012EE4D19A4B1B6813F0020F03D0A9
:103B0000A369002B00F0F482206A954B1B6813F028
:103B1000080F5BD0924B1B6803F0F00398425CD80F
:103B20008F4B1A6842F008021A601A6822F0F002FD
:103B3000216A0A431A605A6822F47F42E16942EA24
:103B400001225A60002D60D0FFF74CFF844B9B6828
:103B5000C3F30313834AD35C03F01F03D840824BA3
:103B60001860824B1868FFF7DFFD002840F0C9821B
:103B7000236813F0010F00F08180082D75D00C2D03
:103B800071D06368B3F5803F00F09780B3F5A02F44
:103B900000F09980724B1A6822F480321A601A6819
:103BA00022F480221A606368002B00F09980FFF7EE
:103BB000FFFD07466A4B1B6813F4003F5ED1FFF719
:103BC000F7FDC01B6428F5D903209AE2644BD3F8B3
:103BD00094301B0903F0F003A0E7FFF7BBFE0028B9
:103BE00040F088825E4B1A6842F008021A601A6838
:103BF00022F0F002216A0A431A605A6822F47F42D6
:103C0000E16942EA01225A609EE7206AFFF7A2FEBC
:103C1000002899D0012074E2514B1A6842F0080242
:103C20001A601A6822F0F002216A0A431A605A6880
:103C300022F47F42E16942EA01225A6098E7484A49
:103C4000136823F001031360FFF7B2FD0746444BEE
:103C50001B6813F0020F8BD0FFF7AAFDC01B0228D0
:103C6000F5D903204DE2032E8BD13D4B1B6813F495
:103C7000003F03D06368002B00F03E82236813F0FE
:103C8000020F4FD0042D3CD00C2D38D0E368002B10
:103C900077D0334A136843F480731360FFF788FDCD
:103CA00006462F4B1B6813F4806F61D1FFF780FD30
:103CB000801B0228F5D9032023E2294A136843F424
:103CC000803313606FE703F18043A3F53C331A6838
:103CD00042F480221A601A6842F480321A6062E765
:103CE000FFF766FD07461E4B1B6813F4003FC5D067
:103CF000FFF75EFDC01B6428F5D9032001E2022E08
:103D0000C4D1174B1B6813F4806F03D0E368002BFA
:103D100000F0F481124A536823F0FE43216943EA1C
:103D200001635360236813F0080F55D06369002BBB
:103D30003BD00B4AD2F8943043F00103C2F89430E0
:103D4000FFF736FD0646064BD3F8943013F0020F0A
:103D500042D1FFF72DFD801B0228F4D90320D0E1CA
:103D600000100240A0F00008800000207C0000202D
:103D7000B44A536823F0FE43216943EA0163536068
:103D8000D0E7B04A136823F480731360FFF710FD87
:103D90000646AC4B1B6813F4806FC3D0FFF708FDD9
:103DA000801B0228F5D90320ABE1A64AD2F8943053
:103DB00023F00103C2F89430FFF7FAFC0646A14B4A
:103DC000D3F8943013F0020F06D0FFF7F1FC801BFC
:103DD0000228F4D9032094E1236813F0040F7AD069
:103DE000984B9B6D13F0805F36D1964B9A6D42F0E5
:103DF00080529A659B6D03F080530193019B0126CD
:103E0000914B1B6813F4807F28D0A368012B39D015
:103E1000052B3FD08B4BD3F8902022F00102C3F842
:103E20009020D3F8902022F00402C3F89020A368D9
:103E3000002B3DD0FFF7BCFC0746824BD3F89030F7
:103E400013F0020F46D1FFF7B3FCC01B41F28833D9
:103E50009842F2D9032054E10026D1E77A4A136848
:103E600043F480731360FFF7A3FC0746764B1B688F
:103E700013F4807FC9D1FFF79BFCC01B0228F5D942
:103E800003203EE16F4AD2F8903043F00103C2F8BC
:103E90009030CCE76B4BD3F8902042F00402C3F88B
:103EA0009020D3F8902042F00102C3F89020BEE7A2
:103EB000FFF77EFC0746634BD3F8903013F0020FF8
:103EC00008D0FFF775FCC01B41F288339842F2D945
:103ED000032016E1E6B9236813F0200F35D0636A9A
:103EE000E3B1584AD2F8983043F00103C2F8983051
:103EF000FFF75EFC0646534BD3F8983013F0020FE1
:103F000023D1FFF755FC801B0228F4D90320F8E0E9
:103F10004C4A936D23F080539365DCE7494AD2F80D
:103F2000983023F00103C2F89830FFF741FC0646B1
:103F3000444BD3F8983013F0020F06D0FFF738FC4B
:103F4000801B0228F4D90320DBE0A36A002B00F0D9
:103F5000D780022B27D00C2D00F0D780394B1A6860
:103F600022F080721A601B6813F0006F04D1354A8A
:103F7000D36823F00303D360324AD36823F08873F5
:103F800023F48033D360FFF713FC04462D4B1B68EA
:103F900013F0007F00F0A880FFF70AFC001B022846
:103FA000F4D90320ADE0274BDB6803F00301E26A9C
:103FB000914209D00C2D00F0A680224B1B6813F013
:103FC000806F2BD001209CE003F07002216B01393F
:103FD000B2EB011FEED103F4FE42616BB2EB012F95
:103FE000E8D103F07842A16BB2EBC16FE2D103F4E8
:103FF000C001E26B5208013AB1EB425FDAD103F043
:10400000C063226C5208013AB3EB426FD2D10D4B20
:104010001B6813F0007F4DD0002072E0094A13683E
:1040200023F080731360FFF7C3FB0546054B1B6845
:1040300013F0007F0AD0FFF7BBFB401B0228F5D925
:1040400003205EE00010024000700040304AD36858
:1040500030491940E36A206B013843EA0013606B72
:1040600043EA0023E06B4008013843EA4053206CE8
:104070004008013843EA4063A06B43EAC0630B4346
:10408000D360136843F080731360D36843F0807388
:10409000D360FFF78DFB04461D4B1B6813F0007FB8
:1040A00006D1FFF785FB001B0228F5D9032028E085
:1040B000002026E0164B1A6842F080721A60DA6817
:1040C00042F08072DA60FFF773FB0446104B1B6806
:1040D00013F0007F06D1FFF76BFB031B022BF5D912
:1040E00003200EE000200CE000200AE001207047D1
:1040F000012006E0012004E0012002E0012000E0B0
:10410000002003B0F0BD0120FBE70120F9E700BF6C
:10411000001002408C809D01002800F0988070B54E
:104120000C4605464E4B1B6803F007038B420BD22F
:104130004B4A136823F007030B431360136803F023
:1041400007038B4240F085802B6813F0010F39D0B4
:104150006B68032B09D0022B26D063BB414A12683F
:1041600012F0020F06D1012070E03E4A126812F0F0
:10417000007F70D03B498A6822F0030213438B60B2
:10418000FFF716FB0646374B9B6803F00C036A6883
:10419000B3EB820F16D0FFF70BFB801B41F2883385
:1041A0009842F0D9032051E02E4A126812F4003FE1
:1041B000E0D101204AE02B4A126812F4806FD9D175
:1041C000012043E02B6813F0020F06D0254A9368C4
:1041D00023F0F003A9680B439360214B1B6803F0A5
:1041E0000703A3420AD91E4A136823F00703234397
:1041F0001360136803F00703A3422ED12B6813F05A
:10420000040F06D0174A936823F4E063E9680B4370
:1042100093602B6813F0080F07D0124A936823F4B9
:104220006053296943EAC1039360FFF7DBFB0D4B41
:104230009B68C3F303130C4AD35C03F01F03D840FD
:104240000A4B18600A4B1868FFF76EFA70BD012020
:1042500070470120FAE70120F8E70120F6E700BFE8
:104260000020024000100240A0F000088000002062
:104270007C000020014B1868704700BF80000020C0
:1042800008B5FFF7F7FF054B9B68C3F30223044A09
:10429000D35C03F01F03D84008BD00BF00100240EC
:1042A000B0F0000808B5FFF7E5FF054B9B68C3F3C6
:1042B000C223044AD35C03F01F03D84008BD00BFEB
:1042C00000100240B0F00008F8B504460F46584B05
:1042D000DB6813F0030F18D0554BDB6803F00303C2
:1042E0000268934202D001252846F8BD002A00F05A
:1042F0009D804F4BDB68C3F3021301334268934246
:1043000001D00125F0E7002509E00368022B56D013
:10431000032B5BD0012B41D00125002DE4D1444A71
:10432000136823F080631360FFF742FA0646404BA0
:104330001B6813F0006F05D0FFF73AFA831B022BBE
:10434000F5D90325002DCFD1002F4DD138490B6968
:1043500023F0784323F4FE43A068E268D20642EAE1
:10436000002213430B61324A136843F080631360E9
:10437000FFF71EFA06462E4B1B6813F0006F05D19F
:10438000FFF716FA831B022BF5D90325002DABD1BD
:10439000274A1369A1690B431361A5E7244A1268F0
:1043A00012F0020F1ED02248C26822F07302616828
:1043B000013943EA01131343C3600025ADE71C4AEA
:1043C000126812F4806FEED10125A6E7184A126830
:1043D00012F4003FE7D1164A126812F4802FE2D19E
:1043E00001259AE7012598E7012F0FD010480269AF
:1043F00022F0C06222F4FE42A16863695B08013BBF
:104400005B0643EA012313430361ACE708480269F2
:1044100022F4C00222F4FE42A16823695B08013B3A
:104420005B0543EA0123134303619CE701255BE736
:10443000001002402DE9F04182B00446036813F4F5
:10444000006F25D0C36CB3F5000F06D0B3F5400F55
:1044500012D04BB1012637461CE0BE4AD36843F464
:104460008033D360002708E000210430FFF72CFFE1
:10447000074610B106460DE00027B64AD2F888304C
:1044800023F44003E16C0B43C2F88830002601E0BE
:1044900000263746236813F4003F6BD0AD4B9B6D6D
:1044A00013F0805F4CD1AB4B9A6D42F080529A650D
:1044B0009B6D03F080530193019B4FF00108A64AC6
:1044C000136843F480731360FFF772F90546A24B3B
:1044D0001B6813F4807F05D1FFF76AF9401B02289F
:1044E000F5D90327002F40D19A4BD3F8903013F41D
:1044F000407315D0626E9A4212D0964AD2F890302C
:1045000023F44073D2F8901041F48031C2F8901037
:10451000D2F8901021F48031C2F89010C2F8903097
:1045200013F0010F0FD1002F40F01181894AD2F80A
:10453000903023F44073616E0B43C2F8903015E065
:104540004FF00008BBE7FFF733F90546814BD3F87E
:10455000903013F0020FE6D1FFF72AF9401B41F229
:1045600088339842F2D90327DDE73E46B8F1000FC1
:1045700040F0F480236813F0010F08D0754AD2F898
:10458000883023F00303216A0B43C2F88830236884
:1045900013F0020F08D06F4AD2F8883023F00C03D2
:1045A000616A0B43C2F88830236813F0040F08D007
:1045B000684AD2F8883023F03003A16A0B43C2F86E
:1045C0008830236813F0080F08D0624AD2F8883088
:1045D00023F0C003E16A0B43C2F88830236813F06C
:1045E000200F08D05B4AD2F8883023F44063216B57
:1045F0000B43C2F88830236813F4007F08D0554A73
:10460000D2F8883023F44023616C0B43C2F8883021
:10461000236813F4806F08D04E4AD2F8883023F410
:104620004013A16C0B43C2F88830236813F0400F8D
:1046300008D0484AD2F8883023F44053616B0B43CA
:10464000C2F88830236813F0800F08D0414AD2F8AE
:10465000883023F44043A16B0B43C2F888302368B1
:1046600013F4807F08D03B4AD2F8883023F44033DB
:10467000E16B0B43C2F88830236813F4801F08D025
:10468000344AD2F89C3023F00303216C0B43C2F868
:104690009C30236813F4005F0FD02E4AD2F8883084
:1046A00023F04063216D0B43C2F88830236DB3F1D2
:1046B000006F59D0B3F1806F5BD0236813F4002FE3
:1046C0000FD0244AD2F8883023F04063616D0B4349
:1046D000C2F88830636DB3F1006F52D0B3F1806FD0
:1046E00054D0236813F4802F0FD01A4AD2F88830A0
:1046F00023F04063A16D0B43C2F88830A36DB3F182
:10470000006F4BD0B3F1806F4DD0236813F4804F0E
:104710000CD0104AD2F8883023F04053E16D0B439F
:10472000C2F88830E36DB3F1805F44D0236813F49E
:10473000803F08D0074AD2F8883023F00043216E2A
:104740000B43C2F88830304602B0BDE8F0813E46E7
:104750000CE700BF00100240007000401A4A936D41
:1047600023F08053936505E7D36843F48013D36047
:10477000A3E70121201DFFF7A7FD00289DD00646D5
:104780009BE7D36843F48013D360AAE70121201D7F
:10479000FFF79AFD0028A4D00646A2E7D36843F4A9
:1047A0008013D360B1E70121201DFFF78DFD0028A4
:1047B000ABD00646A9E70221201DFFF785FD0028A2
:1047C000B4D00646B2E700BF00100240F0B583B097
:1047D000002336E0042400E00024B4403C430235CA
:1047E0005C4E46F825405C4C2568D44325EA020619
:1047F0004F6817F4803F01D042EA0506564D2E60FF
:104800006D6804EA05064F6817F4003F01D042EADC
:104810000506514D6E60AD6804EA05064F6817F451
:10482000801F01D042EA05064B4DAE60ED682C407A
:104830004E6816F4001F01D042EA0504464AD460CF
:1048400001330A6832FA03F400F0818001249C40AD
:104850002240F5D04D686E1E012E03D9112D01D0D6
:10486000122D12D186685F000325BD4026EA050699
:10487000CD68BD4035438560466826EA04064D682C
:10488000C5F300149C4034434460C7685E000325B0
:10489000B540EC4327EA05078D68B5403D43C56048
:1048A0004D68022D01D0122D13D1DF08083750F8C2
:1048B00027E003F007054FEA850C0F2505FA0CF5F4
:1048C0002EEA050E0D6905FA0CF545EA0E0540F8CD
:1048D0002750056825404C6804F00304B4402C437D
:1048E00004604C6814F0805FAAD01C4C256E45F023
:1048F00001052566246E04F001040194019C9D08C5
:10490000AE1C144C54F8267003F00304A6000F24C8
:10491000B44027EA0407B0F1904F3FF45DAF104C6C
:10492000A0420ED004F58064A0420CD004F580644F
:10493000A0420AD004F58064A0423FF44BAF0724A4
:104940004BE7012449E7022447E7032445E703B086
:10495000F0BD00BF00000140000401400010024013
:10496000000400480AB1816170478162704700000D
:10497000024B186800F4C060704700BF0070004030
:10498000B0F5007F0FD01F4B1B6803F4C063B3F575
:10499000806F34D01B4A136823F4C06343F48063F0
:1049A000136000207047174B1B6803F4C063B3F516
:1049B000007F20D0134A136823F4C06343F40073CC
:1049C0001360114B1A68322303FB02F30F4AA2FB58
:1049D00003239B0C013300E0013B0A4A526912F4A5
:1049E000806F01D0002BF7D1064B5B6913F4806F09
:1049F00003D100207047002070470320704700203B
:104A0000704700BF007000408000002083DE1B4321
:104A1000024A536843F4806353607047007000405B
:104A2000074AD36823F4E0631B041B0C000200F464
:104A3000E060034343F0BF6343F40033D360704747
:104A400000ED00E030B4174BDB68C3F30223C3F181
:104A50000704042C28BF04241D1D062D18D9033B70
:104A60004FF0FF3505FA04F421EA0401994005FAF4
:104A700003F322EA0303194300280BDB0901C9B23F
:104A800000F1604000F5614080F8001330BC7047D1
:104A90000023E5E700F00F000901C9B2024B1954E9
:104AA000F4E700BF00ED00E014ED00E0002807DBB4
:104AB00000F01F02400901239340024A42F82030CF
:104AC000704700BF00E100E00138B0F1807F0AD2FA
:104AD000064B5860064AF02182F8231000209860A7
:104AE00007221A6070470120704700BF10E000E005
:104AF00000ED00E030B583B000230193002800F002
:104B0000DA800446836D03B323689A6812F0005F6D
:104B100005D09A6822F0204222F03F029A60226873
:104B2000936813F0805F1DD1936823F0104323F046
:104B30003F0343F080539360604B1B689B09604ABE
:104B4000A2FB03239B09019309E0FCF78BFE0023E2
:104B5000E36584F85430D7E7019B013B0193019B47
:104B6000002BF9D12268936813F0805F09D1A36DFF
:104B700043F01003A365E36D43F00103E3650120F7
:104B800000E00020936813F0040300D00123A16D1E
:104B900011F0100F40F08880002B40F08580A36D4D
:104BA00023F4817343F00203A365936813F0010FAC
:104BB0000BD1444B9B6813F0010F06D16368424947
:104BC0008A6822F47C1213438B60627E636B43EA33
:104BD0004233E2681343A268134394F8202043EA67
:104BE0000243012A40D0A26A22B102F47072E16A43
:104BF0000A4313432168CD68344A2A401343CB60EB
:104C000021688B6813F0040300D001238A6812F036
:104C1000080200D00122C3B9BAB9E36C227E43EA8C
:104C2000823394F8302043EA4202CB6823F4804375
:104C300023F006031343CB6094F83830012B18D0CF
:104C40002268136923F0010313612369012B22D029
:104C50002268136B23F00F031363A36D23F0030388
:104C600043F00103A36524E0626A013A43EA424348
:104C7000B9E721680B6923F4FF6323F00403E26BB7
:104C8000256C2A43656C2A43A56C2A43134343F0E1
:104C900001030B61D9E721680B6B23F00F03E26975
:104CA000013A13430B63D8E7A36D43F01003A365E8
:104CB000012003B030BD0120FBE700BF80000020D1
:104CC000632D3E05000004500003045007C0F0FFB0
:104CD000F0B482B00022019290F85420012A00F032
:104CE0004D820346012280F854200268926812F037
:104CF000040F0AD0826D42F020028265012000225A
:104D000083F8542002B0F0BC70474A68052A09D8DD
:104D1000023A032A00F29780DFE802F0028B8E91BC
:104D20000C224A601E684D680C6830362A0A9200D0
:104D300002F00C02B05805F01F051F27AF4020EA13
:104D40000700C4F38464AC402043B0501C68A268E0
:104D500012F0040200D00122A06810F0080000D078
:104D60000120002A32D188BB8868B0F1004F6DD095
:104D70000E681434720E920002F00402A558C6F3B5
:104D800004560727B74025EA0705B0402843A0503E
:104D90001868426922F0004242614C691868C26892
:104DA000C2F3C102520004FA02F20D69042D62D06E
:104DB0000E68603050F82570B04C3C4006F0F84664
:104DC0003243144344F0004440F825401868826898
:104DD00012F0010F16D10A68CD68D0F8B040C2F3C6
:104DE000120624EA060405F01806A54DF5402A40EF
:104DF000C2F312022243C0F8B020C868A14A904210
:104E000000F0A1800A68A0490A4200F0B3819F49DE
:104E1000896801F0E0749E48824200F05E819D48FE
:104E2000824200F080819C48824200F09081002004
:104E300065E712224A6075E718224A6072E74FF46C
:104E400080724A606EE706224A606BE70868143495
:104E5000420E920002F00402A558C0F30450072647
:104E600006FA00F025EA0000A0501868426942F0F6
:104E70000042426191E7026E046EC4F384640A68E2
:104E8000C2F3120585BBC2F38462944234D01C681D
:104E9000626E606EC0F384600A68C2F3120585BB5F
:104EA000C2F38462904234D01C68A26EA06EC0F33C
:104EB00084600A68C2F3120585BBC2F38462904223
:104EC00034D01C68E26EE06EC0F384600A68C2F3FE
:104ED000120585BBC2F3846290427FF477AFE26E25
:104EE00022F00042E26671E792FAA2F212B1B2FA3F
:104EF00082F2CAE72022C8E7026E22F00042026670
:104F0000C5E792FAA2F212B1B2FA82F2CAE72022FF
:104F1000C8E7626E22F000426266C5E792FAA2F22A
:104F200012B1B2FA82F2CAE72022C8E7A26E22F0DA
:104F30000042A266C5E792FAA2F212B1B2FA82F278
:104F4000CAE72022C8E71D680A68C2F31206002ECD
:104F500035D1900E013000F01F0009288CBF0020D1
:104F60000120002862D0002E38D1940E0134A4060E
:104F700004F0F844002E3DD1900E013000F01F07E0
:104F80000120B8400443002E42D1920E013202F0BB
:104F90001F0202EB4202120522438C681435500EA8
:104FA000800000F004002E58C2F3045207279740F7
:104FB00026EA070604FA02F232432A5022E792FA5E
:104FC000A2F048B1B0FA80F0013000F01F000928CB
:104FD0008CBF00200120C4E72020F5E792FAA2F45C
:104FE00034B1B4FA84F40134A40604F0F844C1E7FF
:104FF0002024F8E792FAA2F040B1B0FA80F0013034
:1050000000F01F00012707FA00F0BBE72020F6E7B9
:1050100092FAA2F242B1B2FA82F2013202F01F0217
:1050200002EB42021205B7E72022F6E7CEB9940E52
:105030000134A40604F0F84486BB900E013000F061
:105040001F070120B8400443B6BB900E013000F0AA
:105050001F0000EB40021E3A120542F0007222438C
:105060009BE792FAA2F434B1B4FA84F40134A406B2
:1050700004F0F844E0E72024F8E700BF00F0FF0365
:10508000FFFF070000007F4000000880000304507D
:10509000000052C7000084CB0100008092FAA2F009
:1050A00040B1B0FA80F0013000F01F00012707FA8C
:1050B00000F0C8E72020F6E792FAA2F25AB1B2FA5D
:1050C00082F0013000F01F0000EB40021E3A120592
:1050D00042F00072C3E72020F3E711F4000F7FF4E1
:1050E0009EAE1968264A914201D0002007E644F49A
:1050F00000022448816821F0E0710A438260224A5C
:10510000126892092149A1FB0212920902EB4202A4
:105110009200019202E0019A013A0192019A002A5A
:10512000F9D10020EBE511F0807F7FF47CAE1968A7
:10513000134A914201D00020E1E544F08072114809
:10514000816821F0E0710A4382600020D7E511F404
:10515000800F11D119680A4A914201D00020CEE592
:1051600044F480020748816821F0E0710A438260BC
:105170000020C4E50020C2E50020C0E50220C1E512
:10518000000004500003045080000020632D3E0501
:10519000D0B504460168836802691343426913432A
:1051A000C269134308689A4A024013430B6022689D
:1051B000536823F44053E1680B435360A1692268AC
:1051C000944B9A4201D0236A1943936823F43063C5
:1051D0000B4393602268904B9A4223D08F4B9A42A4
:1051E00034D08F4B9A424AD08E4B9A4259D0894B39
:1051F0009A4268D0102387498A4200F09580E0697E
:10520000B0F5004F00F0C080082B00F22A81DFE8E3
:1052100013F0E8000F01E60028011201280128011F
:105220002801150103F55843D3F8883003F0030330
:10523000032B09D8DFE803F002045C060123DAE758
:105240000423D8E70823D6E71023D4E703F5E63391
:10525000D3F8883003F00C030C2B0ED8DFE803F0F2
:10526000070D0D0D090D0D0D4A0D0D0D0B00002341
:10527000C1E70423BFE70823BDE71023BBE703F51D
:10528000E433D3F8883003F03003202B34D004D833
:10529000A3B3102B34D10423ADE7302B32D1082334
:1052A000A9E703F5E233D3F8883003F0C003802B7D
:1052B0002AD004D853B3402B2AD104239BE7C02B18
:1052C00028D1082397E703F5C833D3F8883003F4CF
:1052D0004063B3F5006F1FD005D8FBB1B3F5806F05
:1052E0001ED1042387E7B3F5406F1BD1082382E763
:1052F000022380E702237EE702237CE700237AE78C
:10530000102378E7102376E7022374E7002372E77F
:10531000102370E710236EE702236CE700236AE78F
:10532000102368E7102366E7082B00F28A80DFE885
:1053300003F0088829882688888805004FF40040F3
:1053400003E0FEF79DFF00287DD0626802EB420378
:1053500083427AD8B0EB023F79D80023070E0602C9
:105360005008301847F10001FBF730FCA0F54072FF
:105370002D4B9A426DD82368D860002044E0FEF798
:1053800031FBE0E72948E0E7082B64D8DFE803F0C9
:1053900007210563246363630B00244803E0FEF7E1
:1053A0006FFF002859D06268530803EB4000B0FB40
:1053B000F2F080B2A0F110024FF6EF739A424ED88D
:1053C00020F00F03C0F3420018432368D860002088
:1053D0001AE0FEF767FFE4E7FEF704FBE1E7134896
:1053E00003E0FEF74DFF00283DD0636800EB53005B
:1053F000B0FBF3F080B2A0F110024FF6EF739A42C7
:1054000033D82368D8600020002323666366D0BDAC
:10541000F369FFEF00800040003801400044004085
:1054200000480040004C0040FFFC0F000024F40046
:10543000FEF738FFD7E7FEF7D5FAD4E74FF4004080
:10544000D3E70120E0E70020DEE70120DCE70120D0
:10545000DAE70120D8E70120D6E70020D4E70120D1
:10546000D2E70120D0E70020CEE70120CCE700BF43
:10547000436A13F0010F06D00268536823F4003327
:10548000816A0B435360436A13F0020F06D002682F
:10549000536823F48033C16A0B435360436A13F0AB
:1054A000040F06D00268536823F48023016B0B437A
:1054B0005360436A13F0080F06D00268536823F460
:1054C0000043416B0B435360436A13F0100F06D047
:1054D0000268936823F48053816B0B439360436AA3
:1054E00013F0200F06D00268936823F40053C16BB9
:1054F0000B439360436A13F0400F0AD0026853686D
:1055000023F48013016C0B435360036CB3F5801FCD
:105510000BD0436A13F0800F06D00268536823F45F
:105520000023816C0B43536070470268536823F477
:10553000C003416C0B435360EBE72DE9F84305468C
:105540000F4616469946DDF820802C68E46937EA54
:1055500004030CBF01240024B4423CD1B8F1FF3F46
:10556000F3D0FEF725F9A0EB0900404521D8B8F1AA
:10557000000F1ED02B681A6812F0040FE5D0DA690C
:1055800012F4006FE1D04FF400621A622A681368C7
:1055900023F4D07313602A68936823F001039360A7
:1055A00020236B67AB67EB67002385F8703003201F
:1055B00012E02A68136823F4D07313602A68936892
:1055C00023F00103936020236B67AB67002385F80A
:1055D0007030032000E00020BDE8F88330B583B0D0
:1055E00004460023C367FEF7E3F8054623681B68FB
:1055F00013F0080F0CD123681B6813F0040F15D1AA
:1056000020236367A367002084F8700003B030BDD7
:105610006FF07E430093034600224FF400112046B2
:10562000FFF78BFF0028E6D00320EFE76FF07E4303
:1056300000932B4600224FF480012046FFF77DFFA8
:105640000028DDD00320E1E768B310B50446436FBE
:1056500003B3242363672268136823F001031360F4
:105660002046FFF795FD012813D0636ABBB9226875
:10567000536823F4904353602268936823F02A030D
:1056800093602268136843F0010313602046FFF71C
:10569000A5FF10BD80F87030FCF74EF9D9E7204621
:1056A000FFF7E6FEE3E70120704700286AD010B557
:1056B0000446436A33B94368B3F5827F05D00023BB
:1056C000C36102E00023036143610023A36294F8F5
:1056D0005D30002B4DD0022384F85D3022681368C2
:1056E00023F040031360E368B3F5E06F47D900226D
:1056F000B3F5706F04D0B3F5E06F01D00023A3625F
:10570000636803F48273A16801F404410B432169C7
:1057100001F002010B43616901F001010B43A16932
:1057200001F400710B43E16901F038010B43216A78
:1057300001F080010B43A16A01F4005120680B4382
:105740000360638B03F00403616A01F010010B43F3
:10575000616B01F008010B43E16801F470610B43D8
:10576000216813434B6000202066012384F85D30DC
:1057700010BD84F85C302046FCF73EF9ABE74FF4EF
:105780008052B5E70120704730B4036A056A25F0FE
:1057900001050562846924F0F00444EA021423F050
:1057A0000A030B438461036230BC704730B4056A5E
:1057B00025F0100505628469036A24F4704444EA04
:1057C000023423F0A00343EA01138461036230BC76
:1057D0007047836823F070030B4343F00703836033
:1057E0007047000003681E4A904206D0B0F1804F17
:1057F00003D0A2F59432904203D123F070034A689B
:105800001343174A90420ED0B0F1804F0BD0A2F54F
:105810009432904207D002F59E32904203D002F5B6
:105820008062904203D123F44073CA68134323F08B
:1058300080034A69134303608B68C3620B68836209
:10584000074B984207D003F5A053984203D003F5C5
:105850008063984201D10B69036301234361704760
:10586000002C014060B310B5044690F83D3013B3EE
:10587000022384F83D30214651F8040BFFF7B2FFB4
:10588000012384F8483084F83E3084F83F3084F8AF
:10589000403084F8413084F8423084F8433084F852
:1058A000443084F8453084F8463084F8473084F832
:1058B0003D30002010BD80F83C30FCF7D5F8D7E72C
:1058C0000120704710B4846824F47F4442EA032224
:1058D0000A43224382605DF8044B704790F83C30E5
:1058E000012B64D010B50446012380F83C3002231C
:1058F00080F83D30026890682E4B034093600B683F
:10590000602B40D022D8402B47D00BD9502B0ED142
:10591000CA6849682068FFF737FF50212068FFF701
:1059200058FF04E0202B0CD008D9302B09D00123DC
:1059300084F83D30002084F83C0010BD0BB1102BE2
:10594000F5D119462068FFF744FFF0E7702B0ED021
:10595000B3F5005FEBD1CB684A6889682068FFF730
:10596000B1FF2268936843F480439360DFE7CB681C
:105970004A6889682068FFF7A5FF2268936843F0AA
:1059800077039360D3E7CA6849682068FFF70EFF82
:1059900060212068FFF71DFFC9E7CA6849682068D1
:1059A000FFF7F2FE40212068FFF713FFBFE7022058
:1059B000704700BF8800FEFF90F83C30012B33D0C9
:1059C00030B4012380F83C30022380F83D30026877
:1059D00053689568154CA24221D023F070030C68DF
:1059E000234353600368114A93420AD0B3F1804FB6
:1059F00007D0A2F59432934203D002F59E3293422F
:105A000004D125F080058A6815439D60012380F844
:105A10003D30002380F83C30184630BC704723F4FA
:105A200070034C682343D8E702207047002C0140E4
:105A30000F49D1F8883043F47003C1F888300D4B1A
:105A40001A6842F001021A60002098601A6822F079
:105A5000A85222F410221A604FF48052DA601A68B9
:105A600022F480221A6098614FF000638B607047C7
:105A700000ED00E00010024098B108B50346002098
:105A8000C3F8B802C3F8C002C3F8CC0209B1C3F826
:105A9000B412012183F89C121A701846FBF7E0FC3F
:105AA00008BD0320704710B582B00023ADF8063062
:105AB00061B10446C0F8B812CB6A4BB10DF10600D3
:105AC0009847C4F8CC02002002B010BD0320FBE7C9
:105AD0000020F9E708B5FBF709FD08BD08B5D0F8C7
